S010000052544F5344656D6F2E7372656347
S1130000D064002065380000E93800004138000061
S113001000000000000000000000000000000000DC
S1130020000000000000000000000000E9380000AB
S11300300000000000000000C105000009060000E7
S1130040E9380000E9380000E9380000E938000028
S1130050E9380000E9380000E938000031280000E0
S11300604928000061280000792800009128000038
S1130070A9280000E9380000E9380000E938000048
S1130080E9380000E9380000E9380000E9380000E8
S1130090E9380000E9380000E9380000E9380000D8
S11300A010B5064C2378002B07D1054B002B02D04A
S11300B0044800E000BF0123237010BD3404002075
S11300C000000000983D0000084B10B5002B03D041
S11300D00749084800E000BF07480368002B00D127
S11300E010BD064B002BFBD09847F9E70000000039
S11300F038040020983D0000983D000000000000F6
S113010080B584B000AF0200FB1D1A700F23FB18EA
S1130110FA1D1278D2091A700E23FB18FA1D1278F0
S113012052091A700D4BBB600F23FB181B78002B70
S11301300FD10F23FB181B789B0010229446BC445C
S11301406344083B1A680E23FB181B78DB01D318A1
S113015000E000231800BD4604B080BD0044004107
S113016080B582B000AF0200FB1D1A70FB1D1B7826
S11301701800034B984703001800BD4602B080BD29
S11301800101000080B584B000AF0200FB1D1A70AD
S1130190FB1D1B781800094B98470300FB60FB1DEF
S11301A01B781F22134001229A401300BB60FB6896
S11301B0BA68DA61C046BD4604B080BD6101000082
S11301C090B583B002AF002204210120104B984760
S11301D00200104B1A600F4B1B68002B16D00E49FF
S11301E00E480023019302230093222346220C4C41
S11301F0A0470C4A0C490D480023019301230093A6
S113020013004622064CA047094B9847FEE7C04618
S1130210C10A000050040020C03C00008902000014
S11302203514000011110000C43C00003502000028
S1130230A517000090B585B000AF78606423BB605B
S11302407B680C4A934201D072B6FEE70A4B98478A
S11302500300FB600C23FB1864211800074B98472C
S1130260074B18680823F91800230022054CA047FF
S1130270F0E7C046111100007D190000DD160000F2
S113028050040020890B000080B584B000AF786072
S11302907B68222B01D072B6FEE7094B1868012354
S11302A05A420C23FB181900064B9847FB68642B31
S11302B0F3D10E20044B98470023FB60EDE7C046C2
S11302C0500400209D0E00008501000080B582B01E
S11302D000AF78607B6808331A007B685A607B68DB
S11302E0012252429A607B6808331A007B68DA6004
S11302F07B6808331A007B681A617B6800221A60E5
S1130300C046BD4602B080BD80B582B000AF786003
S11303107B6800221A61C046BD4602B080BD80B52C
S113032084B000AF786039607B685B68FB603B68D1
S1130330FA685A60FB689A683B689A60FB689B6835
S11303403A685A60FB683A689A603B687A681A614E
S11303507B681B685A1C7B681A60C046BD4604B0A3
S113036080BD80B584B000AF786039603B681B689D
S1130370BB60BB68013303D17B681B69FB600CE085
S11303807B680833FB6002E0FB685B68FB60FB682A
S11303905B681A68BB689A42F6D9FB685A683B687E
S11303A05A603B685B683A689A603B68FA689A608E
S11303B0FB683A685A603B687A681A617B681B6814
S11303C05A1C7B681A60C046BD4604B080BD80B527
S11303D084B000AF78607B681B69FB607B685B68F6
S11303E07A6892689A607B689B687A6852685A60F7
S11303F0FB685A687B689A4203D17B689A68FB68F9
S11304005A607B6800221A61FB681B685A1EFB68ED
S11304101A60FB681B681800BD4604B080BD00006C
S113042080B584B000AFF860B9607A60FB68043BC3
S1130430FB60FB68802252041A60FB68043BFB608B
S1130440BA68FB681A60FB68043BFB60084AFB68F7
S11304501A60FB68143BFB607A68FB681A60FB68EF
S1130460203BFB60FB681800BD4604B080BDC0465D
S11304707504000080B582B000AF00237B60074B99
S11304801B68013301D072B6FEE772B6C0467B68C2
S1130490002BFCD0C046BD4602B080BD0000002049
S11304A00B4A13681868203080F30988022080F30F
S11304B01488BFF36F8F3FBCAE4608BC04BC62B661
S11304C01847C046C046C046C046C046C046C0469F
S11304D0EC420020C046C04680B500AF0E4B0E4A29
S11304E01268FF2109040A431A600B4B0A4A126876
S11304F0FF2109060A431A60084B9847084B00225B
S11305001A60084B9847084B9847084B98470023B4
S11305101800BD4680BDC04620ED00E0490600003D
S113052000000020A1040000391B00007504000035
S113053080B500AF054B802252051A60BFF34F8F80
S1130540BFF36F8FC046BD4680BDC04604ED00E0DA
S113055080B500AF72B6064B1B685A1C044B1A6078
S1130560BFF34F8FBFF36F8FC046BD4680BDC046FB
S11305700000002080B500AF094B1B68002B01D19F
S113058072B6FEE7064B1B685A1E054B1A60044BF5
S11305901B68002B00D162B6C046BD4680BDC04674
S11305A000000020EFF3108072B67047C0461800B8
S11305B080F310887047C04600000000000000006F
S11305C0EFF309800E4B1A6820381060F0C04446DF
S11305D04D4656465F46F0C008B572B601F0ACFA17
S11305E062B60CBC116808681030F0C8A046A94671
S11305F0B246BB4680F309882038F0C81847C04685
S1130600EC420020C046C04680B582B000AF0A4B21
S1130610984703007B60094B9847031E03D0084B9F
S1130620802252051A607B681800064B9847C04622
S1130630BD4602B080BDC046A5050000B919000042
S113064004ED00E0B1050000B0B500AF0B4B002293
S11306501A600B4B00221A600A4C07200A4B984779
S11306600A4BFA22510098470300013B2360034BD5
S113067007221A60C046BD46B0BDC04610E000E087
S113068018E000E014E000E0452E0000F13800001E
S113069080B586B000AF78600023FB604C4B984770
S11306A04C4B1B68002B01D14B4B98474B4B1B68A1
S11306B07A68134000D079E07B68002B12D00822BE
S11306C07B689B187B607B68072213400AD07B6899
S11306D00722934308337B607B680722134001D0D1
S11306E072B6FEE77B68002B60D03D4B1B687A68CE
S11306F09A425BD83B4B3B613A4B1B687B6104E0FD
S11307007B693B617B691B687B617B695A687B6899
S11307109A4203D27B691B68002BF1D12D4B1B68D5
S11307207A699A4242D03B691B6808229B18FB6095
S11307307B691A683B691A607B695A687B68D21ABC
S113074008235B009A4216D97A697B68D318BB6088
S1130750BB680722134001D072B6FEE77B695A6872
S11307607B68D21ABB685A607B697A685A60BB6836
S113077018001D4B98471A4B1A687B695B68D21A9C
S1130780174B1A60164B1A68184B1B689A4203D20F
S1130790134B1A68154B1A607B695A680F4B1B6818
S11307A01A437B695A607B6900221A60104B984790
S11307B0FB68002B01D10F4B9847FB6807221340BD
S11307C001D072B6FEE7FB681800BD4606B080BDD6
S11307D031180000DC42002095080000E8420020A7
S11307E0E0420020D442002055090000E4420020E9
S11307F049180000F128000080B584B000AF78608B
S11308007B68FB607B68002B35D008235B42FA6869
S1130810D318FB60FB68BB60BB685A68184B1B6845
S1130820134001D172B6FEE7BB681B68002B01D0F0
S113083072B6FEE7BB685A68114B1B6813401AD0A6
S1130840BB681B68002B16D1BB685A680C4B1B682D
S1130850DB431A40BB685A600A4B9847BB685A6826
S1130860094B1B68D218084B1A60BB681800074B69
S11308709847074B9847C046BD4604B080BDC04664
S1130880E842002031180000E04200205509000031
S11308904918000080B584B000AFFA239B01BB6007
S11308A0264BFB60FB68072213400CD0FB68073320
S11308B0FB60FB6807229343FB60BA68FB68D21AAB
S11308C01E4BD318BB60FB687B601D4B7A681A60B3
S11308D01B4B00225A607A68BB68D318FB6008225D
S11308E0FB689B1AFB60FB6807229343FB60FA6872
S11308F0144B1A60134B1B6800225A60114B1B687F
S113090000221A607B683B603B68FA68D21A3B6835
S11309105A600C4B1A683B681A603B685A680A4B69
S11309201A603B685A68094B1A60094B8022120608
S11309301A60C046BD4604B080BDC04654040020C1
S1130940D4420020DC420020E4420020E0420020A7
S1130950E842002080B584B000AF7860274BFB608C
S113096002E0FB681B68FB60FB681A687B689A42BC
S1130970F7D3FB68BB60FB685B68BA68D2187B6816
S11309809A4208D1FB685A687B685B68D218FB6896
S11309905A60FB687B607B68BB607B685B68BA6895
S11309A0D218FB681B689A4218D1FB681A68144B6A
S11309B01B689A420DD07B685A68FB681B685B68A9
S11309C0D2187B685A60FB681B681A687B681A60D7
S11309D008E00B4B1A687B681A6003E0FB681A682E
S11309E07B681A60FA687B689A4202D0FB687A686E
S11309F01A60C046BD4604B080BDC046D442002043
S1130A00DC42002080B584B000AF786039607B6838
S1130A10FB60FB68002B01D172B6FEE7234B9847BD
S1130A20FB681A68FB68D96BFB681B6C4B43D218D4
S1130A30FB689A60FB6800229A63FB681A68FB688B
S1130A405A60FB681A68FB68DB6B591EFB681B6CF9
S1130A504B43D218FB68DA60FB684422FF219954A7
S1130A60FB684522FF2199543B68002B0DD1FB689C
S1130A701B69002B13D0FB68103318000C4B9847EC
S1130A80031E0CD00B4B984709E0FB681033180089
S1130A90094B9847FB6824331800074B9847074BCA
S1130AA0984701231800BD4604B080BD51050000DD
S1130AB0051D000031050000CD0200007505000091
S1130AC090B58BB002AFF860B960FB1D1A70FB687B
S1130AD0002B01D172B6FEE7BB68002B02D10023C4
S1130AE0FB6103E0FB68BA685343FB61FB69543361
S1130AF018000D4B98470300BB61BB69002B0ED057
S1130B00BB697B617B6954337B61FB1D1C787A690B
S1130B10B968F868BB6900932300044CA047BB691B
S1130B201800BD4609B090BD91060000310B0000CD
S1130B3080B584B000AFF860B9607A601A00FB1C1D
S1130B401A70BB68002B03D1BB69BA691A6002E052
S1130B50BB697A681A60BB69FA68DA63BB69BA6808
S1130B601A64BB6901211800064B9847BB69FA1C3B
S1130B70502112785A54BB6900229A64C046BD467B
S1130B8004B080BD050A000080B58AB000AFF860EB
S1130B90B9607A603B6000237B62FB683B623B6A1E
S1130BA0002B01D172B6FEE7BB68002B03D13B6A70
S1130BB01B6C002B01D1012300E00023002B01D189
S1130BC072B6FEE73B68022B03D13B6ADB6B012B59
S1130BD001D1012300E00023002B01D172B6FEE70E
S1130BE0584B9847031E02D17B68002B01D1012387
S1130BF000E00023002B01D172B6FEE7524B984768
S1130C003B6A9A6B3B6ADB6B9A4202D33B68022BCA
S1130C1036D13B6A9B6BFB613A68B9683B6A180042
S1130C204A4B98470300BB613B6A9B6C002B10D076
S1130C303B68022B02D1FB69002B1DD13A683B6A49
S1130C4011001800424B9847031E15D0414B98479A
S1130C5012E03B6A5B6A002B09D03B6A243318001C
S1130C603D4B9847031E07D03A4B984704E0BB69B5
S1130C70002B01D0374B9847384B984701235CE051
S1130C807B68002B03D1354B9847002355E07B6AE2
S1130C90002B06D11023FB181800314B9847012371
S1130CA07B622E4B98472F4B9847274B98473B6ABC
S1130CB044229B5C5BB2013303D13B6A4422002192
S1130CC099543B6A45229B5C5BB2013303D13B6A76
S1130CD0452200219954214B98473A1D1023FB18B3
S1130CE011001800204B9847031E1FD13B6A1800BF
S1130CF01E4B9847031E12D03B6A10337A681100CA
S1130D0018001B4B98473B6A18001A4B98471A4B1C
S1130D109847031E00D071E70E4B98476EE73B6A75
S1130D201800144B9847144B984767E73B6A180020
S1130D30104B9847104B984700231800BD460AB043
S1130D4080BDC04631200000510500003D10000068
S1130D509113000031050000051D00007505000019
S1130D60C51D000031180000ED1D000091120000A7
S1130D706D1C00006D1100004918000080B588B09A
S1130D8000AFF860B9607A603B60FB68BB61BB6927
S1130D90002B01D172B6FEE7BB68002B03D1BB69FF
S1130DA01B6C002B01D1012300E00023002B01D197
S1130DB072B6FEE73B68022B03D1BB69DB6B012BE8
S1130DC001D1012300E00023002B01D172B6FEE71C
S1130DD02D4B984703007B61BB699A6BBB69DB6B46
S1130DE09A4202D33B68022B42D11323FB18BA69FF
S1130DF04521525C1A703A68B968BB691800234BE4
S1130E0098471323FB181B785BB2013324D1BB69C9
S1130E109B6C002B0ED03A68BB69110018001C4B68
S1130E209847031E21D07B68002B1ED07B680122CB
S1130E301A601AE0BB695B6A002B16D0BB692433C5
S1130E401800144B9847031E0FD07B68002B0CD05E
S1130E507B6801221A6008E01323FB181B78013316
S1130E60DBB259B2BB69452299540123FB6101E00D
S1130E700023FB617B691800074B9847FB69180046
S1130E80BD4608B080BDC046A50500003D10000069
S1130E9091130000051D0000B105000080B58AB063
S1130EA000AFF860B9607A6000237B62FB683B6244
S1130EB03B6A002B01D172B6FEE7BB68002B03D15D
S1130EC03B6A1B6C002B01D1012300E00023002BA3
S1130ED001D172B6FEE74C4B9847031E02D17B68E2
S1130EE0002B01D1012300E00023002B01D172B6B5
S1130EF0FEE7464B98473B6A9B6BFB61FB69002B03
S1130F001AD0BA683B6A11001800414B9847FB6934
S1130F105A1E3B6A9A633B6A1B69002B08D03B6AE2
S1130F20103318003B4B9847031E01D03A4B9847A7
S1130F303A4B9847012362E07B68002B03D1374B7F
S1130F40984700235BE07B6A002B06D11423FB182F
S1130F501800334B984701237B62304B9847314B41
S1130F6098472A4B98473B6A44229B5C5BB2013307
S1130F7003D13B6A4422002199543B6A45229B5C7D
S1130F805BB2013303D13B6A452200219954234BC0
S1130F9098473A1D1423FB1811001800224B984758
S1130FA0031E1ED13B6A1800204B9847031E11D024
S1130FB03B6A24337A68110018001D4B98473B6A3A
S1130FC018001C4B98471C4B9847031E91D1124B99
S1130FD098478EE73B6A1800164B9847164B98477C
S1130FE087E73B6A1800134B9847134B98473B6AB3
S1130FF018000E4B9847031E00D17AE7002318000F
S1131000BD460AB080BDC046312000005105000035
S11310101D110000051D00003105000075050000CC
S1131020C51D000031180000ED1D00005D12000018
S11310306D1C00006D1100004918000080B586B0D9
S113104000AFF860B9607A6000237B61FB689B6B3A
S11310503B61FB681B6C002B0ED1FB681B68002BEB
S11310604ED1FB689B6818002A4B984703007B61AC
S1131070FB6800229A6043E07B68002B19D1FB686F
S11310805868FB681A6CBB681900234B9847FB68C7
S11310905A68FB681B6CD218FB685A60FB685A6874
S11310A0FB689B689A422BD3FB681A68FB685A60FA
S11310B026E0FB68D868FB681A6CBB681900164BFD
S11310C09847FB68DA68FB681B6C5B42D218FB68C4
S11310D0DA60FB68DA68FB681B689A4207D2FB682F
S11310E09A68FB681B6C5B42D218FB68DA607B6809
S11310F0022B05D13B69002B02D03B69013B3B61CC
S11311003B695A1CFB689A637B691800BD4606B0AC
S113111080BDC04669200000513A000080B582B00D
S113112000AF786039607B681B6C002B18D07B683B
S1131130DA687B681B6CD2187B68DA607B68DA68D3
S11311407B689B689A4203D37B681A687B68DA6081
S11311507B68D9687B681A6C3B681800024B984717
S1131160C046BD4602B080BD513A000080B584B08F
S113117000AF7860344B98470F23FB187A684521F9
S1131180525C1A7022E07B689B6C002B09D07B6850
S1131190002118002D4B9847031E0FD02C4B984765
S11311A00CE07B685B6A002B17D07B682433180043
S11311B0284B9847031E01D0254B98470F23FB1853
S11311C01B78013BDAB20F23FB181A700F23FB18AC
S11311D01B785BB2002BD6DC00E0C0467B6845225E
S11311E0FF2199541C4B9847174B98470E23FB1823
S11311F07A684421525C1A7014E07B681B69002BE6
S113120017D07B6810331800124B9847031E01D087
S11312100F4B98470E23FB181B78013BDAB20E23C1
S1131220FB181A700E23FB181B785BB2002BE4DC4E
S113123000E0C0467B684422FF219954064B98473E
S1131240C046BD4604B080BD5105000091130000A6
S1131250991E0000051D00007505000080B584B0CE
S113126000AF7860084B98477B689B6B002B02D1DA
S11312700123FB6001E00023FB60044B9847FB68FB
S11312801800BD4604B080BD51050000750500007E
S113129080B584B000AF7860094B98477B689A6B3F
S11312A07B68DB6B9A4202D10123FB6001E00023DF
S11312B0FB60044B9847FB681800BD4604B080BD32
S11312C0510500007505000080B584B000AF78605A
S11312D039600023FB6015E00E4BFA68D200D35846
S11312E0002B0CD10B4BFA68D2003968D150094A53
S11312F0FB68DB00D31804337A681A6005E0FB68E6
S11313000133FB60FB68072BE6D9C046BD4604B039
S113131080BDC0466C44002080B586B000AFF86044
S1131320B9607A60FB687B61154B98477B694422FE
S11313309B5C5BB2013303D17B6944220021995445
S11313407B6945229B5C5BB2013303D17B694522F7
S1131350002199540B4B98477B699B6B002B06D15A
S11313607B6924337A68B9681800074B98477B690E
S11313701800064B9847C046BD4606B080BDC0461F
S11313805105000075050000B11C00006D1100003E
S113139080B586B000AF786039607B689B6C3B6138
S11313A000237B613B69002B01D172B6FEE73B69E8
S11313B09A6B3B69DB6B9A4201D372B6FEE73B69D9
S11313C09A6B3B69DB6B9A422AD20F23FB183A696A
S11313D04521525C1A703A68391D3B691800134B59
S11313E0984703007B610F23FB181B785BB2013322
S11313F00DD13B695B6A002B12D03B692433180082
S11314000B4B9847031E0BD001237B6108E00F238D
S1131410FB181B780133DBB259B23B69452299545E
S11314207B691800BD4606B080BDC0463D10000073
S1131430051D000090B58DB004AFF860B9603B6045
S1131440BB1D1A80BB1D1B889B0018001D4B9847B1
S113145003007B617B69002B10D05820194B9847FF
S11314600300FB61FB69002B03D0FB697A691A63F3
S113147006E07B691800144B984701E00023FB61E8
S1131480FB69002B16D0BB1D1A883C68B968F86844
S113149000230393FB6902937B6B01933B6B0093E3
S11314A023000A4CA047FB691800094B9847012305
S11314B0BB6102E001235B42BB61BB691800BD460E
S11314C009B090BD91060000F9070000D514000092
S11314D0F915000080B586B000AFF860B9607A6095
S11314E03B60BB6A186B7B689B001A00A5213E4BCE
S11314F09847BB6A1A6B7B683C498C4663449B00E3
S1131500D3183B613B69072293433B613B69072244
S1131510134001D072B6FEE7BB68002B20D0002335
S11315207B6113E0BA687B69D3181878BA6A3421EE
S11315307B69D3185B18021C1A70BA687B69D318CC
S11315401B78002B06D07B6901337B617B69042BFC
S1131550E8D900E0C046BB6A38220021995403E070
S1131560BB6A3422002199543B6A042B01D9042319
S11315703B62BB6A3A6ADA62BB6A3A6A5A64BB6A19
S113158000229A64BB6A04331800194B9847BB6A5B
S113159018331800164B9847BB6ABA6A1A613B6A3B
S11315A00522D21ABB6A9A61BB6ABA6A5A62BB6ADA
S11315B00022DA64BB6A00221A65BB6A5422002145
S11315C099543A68F9683B6918000A4B9847020035
S11315D0BB6A1A607B6A002B02D07B6ABA6A1A6003
S11315E0C046BD4606B080BDD53A0000FFFFFF3FB0
S11315F0090300002104000080B582B000AF7860C8
S11316002B4B98472B4B1B685A1C2A4B1A602A4BAE
S11316101B68002B09D1284B7A681A60254B1B687C
S1131620012B10D1254B98470DE0254B1B68002B4F
S113163009D1214B1B68DA6A7B68DB6A9A4202D8BB
S11316401D4B7A681A601F4B1B685A1C1D4B1A608D
S11316501C4B1A687B68DA637B68DA6A1A4B1B686E
S11316609A4203D97B68DA6A174B1A607B68DA6A94
S113167013009B009B189B00144A9A187B68043340
S113168019001000124B9847124B98470C4B1B68DB
S1131690002B08D0084B1B68DA6A7B68DB6A9A4225
S11316A001D20D4B9847C046BD4602B080BDC0462E
S11316B051050000C4430020EC420020D51E000068
S11316C0D0430020E0430020CC430020F04200201F
S11316D01F030000750500003105000080B586B0C9
S11316E000AF7860396000237B617B68002B01D1F7
S11316F072B6FEE73B68002B01D172B6FEE7234BBE
S11317001B68002B01D072B6FEE7214B9847214B92
S11317101B683B617B681A683B68D318FB607B6875
S11317201A683B699A420BD97B681A68FB689A422B
S113173011D9FA683B699A420DD901237B610AE009
S11317407B681A68FB689A4203D8FA683B699A4234
S113175001D901237B617B68FA681A607B69002BDD
S113176006D0FA683B69D31A002118000A4B98473F
S11317700A4B98470300BB60BB68002B01D1084BA0
S11317809847C046BD4606B080BDC046EC43002025
S113179031180000C8430020292100004918000026
S11317A03105000090B585B002AF17491748184BB2
S11317B001930023009300234622164CA047030004
S11317C07B607B68012B03D1134B984703007B603C
S11317D07B68012B0FD172B6104B012252421A6062
S11317E00F4B01221A600F4B00221A600E4B9847D0
S11317F00E4B984704E07B68013301D172B6FEE7D3
S1131800C046BD4603B090BDC83C0000AD1E0000FC
S1131810E843002035140000DD210000E4430020EB
S1131820D0430020C843002011290000D90400003F
S113183080B500AF034B1B685A1C024B1A60C046AC
S1131840BD4680BDEC43002080B584B000AF0023CA
S1131850FB600023BB603A4B1B68002B01D172B6BE
S1131860FEE7384B9847364B1B685A1E344B1A60B8
S1131870334B1B68002B5BD1334B1B68002B57D0B9
S11318802FE0324BDB68DB68FB60FB681833180021
S11318902F4B9847FB68043318002D4B9847FB687F
S11318A0DA6A2C4B1B689A4203D9FB68DA6A294B23
S11318B01A60FB68DA6A13009B009B189B00264A97
S11318C09A18FB68043319001000244B9847FB68EE
S11318D0DA6A234B1B68DB6A9A4202D3214B01224A
S11318E01A601A4B1B68002BCBD1FB68002B01D06C
S11318F01D4B98471D4B1B687B607B68002B0FD0EA
S11319001B4B9847031E02D0164B01221A607B68BA
S1131910013B7B607B68002BF2D1144B00221A60E0
S1131920104B1B68002B03D00123BB60114B98475D
S1131930114B9847BB681800BD4604B080BDC04633
S1131940EC43002051050000C443002084430020E0
S1131950CF030000CC430020F04200201F0300000E
S1131960EC420020D8430020F51F0000D44300209F
S1131970B9190000310500007505000080B582B07A
S113198000AF044B1B687B607B681800BD4602B047
S113199080BDC046C843002080B582B000AF00239C
S11319A07B60044B1B683B603B681800BD4602B07B
S11319B080BDC046C843002080B586B000AF002378
S11319C07B614E4B1B68002B00D084E04C4B1B68A2
S11319D001333B614A4B3A691A603B69002B17D1CA
S11319E0484B1B681B68002B01D072B6FEE7454BC1
S11319F01B68FB60444B1A68424B1A60424BFA68FE
S1131A001A60424B1B685A1C404B1A60404B984763
S1131A10404B1B683A699A4249D33A4B1B681B688E
S1131A20002B04D13B4B012252421A603FE0354B5C
S1131A301B68DB68DB68BB60BB685B687B603A691A
S1131A407B689A4203D2334B7A681A602FE0BB68F2
S1131A5004331800304B9847BB689B6A002B04D0B2
S1131A60BB68183318002C4B9847BB68DA6A2B4BB9
S1131A701B689A4203D9BB68DA6A284B1A60BB68B0
S1131A80DA6A13009B009B189B00254A9A18BB68CE
S1131A90043319001000234B9847BB68DA6A224BC1
S1131AA01B68DB6A9A42B8D301237B61B5E71E4BFE
S1131AB01B68DA6A1A4913009B009B189B005B5849
S1131AC0012B01D901237B61184B1B68002B09D121
S1131AD0174B984706E0154B1B685A1C134B1A60AA
S1131AE0134B9847134B1B68002B01D001237B61D8
S1131AF07B691800BD4606B080BDC046EC4300209B
S1131B00C84300207C43002080430020DC430020A5
S1131B10F51F0000E4430020CF030000CC43002065
S1131B20F04200201F030000EC420020D4430020B8
S1131B3007290000D843002080B584B000AF414B92
S1131B401B68002B03D0404B01221A6076E03E4B09
S1131B5000221A603D4B984702003D4B1A603C4BF3
S1131B601A683C4B1B689A4209D93B4B1B68D96CD9
S1131B70374A1068374A1268821A8A18DA64344B72
S1131B801A68344B1A60344B1B681B6BBB60334BB5
S1131B907B60BB681A687B689A4211D1BB680433C6
S1131BA01A687B689A420BD1BB6808331A687B6851
S1131BB09A4205D1BB680C331A687B689A4208D0F4
S1131BC0254B1A68244B1B68343319001000244B2E
S1131BD09847244B1B68FB6007E0FB68002B01D18E
S1131BE072B6FEE7FB68013BFB601F49FA6813000D
S1131BF09B009B189B005B58002BEED0FA681300E7
S1131C009B009B189B00184A9B183B603B685B68D1
S1131C105A683B685A603B685A683B6808339A4282
S1131C2004D13B685B685A683B685A603B685B68F0
S1131C30DA68094B1A600B4BFA681A60C046BD4655
S1131C4004B080BDEC430020D843002045290000A7
S1131C50F4430020F0430020EC420020A5A5A5A5F4
S1131C60F9280000CC430020F042002080B582B067
S1131C7000AF786039607B68002B01D172B6FEE753
S1131C80084B1B6818331A007B6811001800064BB8
S1131C9098473B6801211800044B9847C046BD464D
S1131CA002B080BDEC420020630300002921000043
S1131CB080B584B000AFF860B9607A60FB68002B2F
S1131CC001D172B6FEE70C4B1B6818331A00FB688F
S1131CD011001800094B98477B68002B02D00123A0
S1131CE05B42BB607A68BB6811001800044B9847DC
S1131CF0C046BD4604B080BDEC4200201F03000076
S1131D002921000080B584B000AF78607B68DB686F
S1131D10DB68BB60BB68002B01D172B6FEE7BB6811
S1131D20183318001F4B98471F4B1B68002B1DD1FD
S1131D30BB68043318001B4B9847BB68DA6A1B4B1B
S1131D401B689A4203D9BB68DA6A184B1A60BB68ED
S1131D50DA6A13009B009B189B00154A9A18BB680B
S1131D60043319001000134B984707E0BB6818337D
S1131D701A00114B110018000E4B9847BB68DA6A21
S1131D800E4B1B68DB6A9A4205D90123FB600C4B9E
S1131D9001221A6001E00023FB60FB681800BD46C5
S1131DA004B080BDCF030000EC430020CC430020EE
S1131DB0F04200201F03000084430020EC42002076
S1131DC0D843002080B582B000AF7860054B1A6814
S1131DD07B681A60044B1A687B685A60C046BD462B
S1131DE002B080BDDC430020C843002080B586B02B
S1131DF000AF786039607B68002B01D172B6FEE7D2
S1131E003B68002B01D172B6FEE71E4B98471E4B70
S1131E101B683B617B685B683A69D31AFB603B686B
S1131E201B68013302D100237B6124E07B681A68BC
S1131E30164B1B689A4207D07B685A683B699A42E2
S1131E4002D801237B6116E03B681A68FB689A425A
S1131E500CD93B681A68FB68D21A3B681A607B6825
S1131E6018000B4B984700237B6104E03B68002279
S1131E701A6001237B61074B98477B691800BD46B4
S1131E8006B080BD51050000C8430020DC4300209B
S1131E90C51D00007505000080B500AF024B01228E
S1131EA01A60C046BD4680BDD843002080B582B0CC
S1131EB000AF7860044B9847044B1B68012BF9D999
S1131EC0034B9847F6E7C046611F0000F04200202C
S1131ED03105000080B582B000AF00237B600CE0C8
S1131EE07A6813009B009B189B00144A9B181800E7
S1131EF0134B98477B6801337B607B68042BEFD9D5
S1131F00104B18000E4B98470F4B18000C4B98477A
S1131F100E4B18000A4B98470D4B1800084B984776
S1131F200C4B1800064B98470B4B064A1A600B4B98
S1131F30054A1A60C046BD4602B080BDF04200208A
S1131F40CD02000054430020684300208443002055
S1131F5098430020B04300207C43002080430020AD
S1131F6080B582B000AF1AE0114B9847114BDB6883
S1131F70DB687B607B68043318000F4B98470F4B7A
S1131F801B685A1E0D4B1A600D4B1B685A1E0C4BD6
S1131F901A600C4B98477B6818000B4B9847084B0A
S1131FA01B68002BE0D1C046BD4602B080BDC046D0
S1131FB05105000098430020CF030000C4430020D3
S1131FC0AC43002075050000CD1F000080B582B031
S1131FD000AF78607B681B6B1800054B98477B68E3
S1131FE01800034B9847C046BD4602B080BDC046AA
S1131FF0F907000080B582B000AF0B4B1B681B686B
S1132000002B04D1094B012252421A6008E0064B0E
S11320101B68DB68DB687B607B685A68034B1A606B
S1132020C046BD4602B080BD7C430020E44300208E
S113203080B582B000AF0A4B1B68002B02D101238C
S11320407B6008E0074B1B68002B02D102237B60F6
S113205001E000237B607B681800BD4602B080BDB0
S1132060D0430020EC43002080B584B000AF7860FA
S11320707B68BB600023FB607B68002B44D0254B4E
S11320801B68BA689A4201D072B6FEE7BB689B6CC3
S1132090002B01D172B6FEE7BB689B6C5A1EBB686D
S11320A09A64BB68DA6ABB685B6C9A422CD0BB68E2
S11320B09B6C002B28D1BB6804331800164B98473F
S11320C0BB685A6CBB68DA62BB68DB6A0522D21A49
S11320D0BB689A61BB68DA6A104B1B689A4203D9E1
S11320E0BB68DA6A0D4B1A60BB68DA6A13009B009E
S11320F09B189B000A4A9A18BB6804331900100005
S1132100084B98470123FB60FB681800BD4604B0E8
S113211080BDC046EC420020CF030000CC43002029
S1132120F04200201F03000080B584B000AF786047
S11321303960214B1B68FB60204B1B68043318007B
S11321401F4B98477B6801330BD13B68002B08D0A9
S11321501A4B1B681A1D1B4B110018001A4B984789
S113216026E0FA687B68D318BB60144B1B68BA6816
S11321705A60BA68FB689A4209D2144B1A680F4B2A
S11321801B68043319001000114B984710E0114BE1
S11321901A680A4B1B680433190010000C4B98474B
S11321A00D4B1B68BA689A4202D20B4BBA681A608C
S11321B0C046BD4604B080BDC8430020EC420020A8
S11321C0CF030000B04300201F0300008043002021
S11321D0630300007C430020E443002090B585B0F5
S11321E002AF00237B600E4B98470E4B1B68002BFD
S11321F00BD00D490D480E4B01930223009300238D
S113220050220C4CA04703007B607B68002B01D15B
S113221072B6FEE77B681800BD4603B090BDC046A9
S1132220A927000028440020F83C00007523000082
S11322302C4400203514000090B589B000AFF8603C
S1132240B9607A603B600023FB61FB68002B01D11D
S113225072B6FEE71E4B1B68002B33D01023FB180D
S1132260BA681A601023FB187A685A601023FB18A6
S1132270FA689A60BB68052B1ADC164B9847030072
S1132280022B0AD1124B18683A6B1023F918002359
S1132290114CA0470300FB6114E00D4B1868102398
S11322A0F918002300220C4CA0470300FB6109E04D
S11322B0074B18683A681023F9180023074CA04705
S11322C00300FB61FB691800BD4609B090BDC04620
S11322D02844002031200000890B00007D0D0000FF
S11322E090B587B002AF786039601E4B1B68DB681D
S11322F0DB68FB60FB68043318001B4B9847FB68E2
S113230028229B5C1A000423134019D0FB689A69A5
S11323107B68D1187B683A68F868144CA047031EA0
S113232017D07A68F8680023009300230021104C2A
S1132330A0470300BB60BB68002B0AD172B6FEE75E
S1132340FB6828229B5C01229343D9B2FB682822B4
S11323509954FB681B6AFA6810009847C046BD464A
S113236005B090BD20440020CF030000DD24000010
S11323703922000080B584B000AF78600823FB18D0
S11323801800064B98470300FB60BA68FB6811000D
S11323901800034B9847034B9847EFE7512400007C
S11323A0A92300006525000080B584B000AF7860E3
S11323B039601F4B98470823FB1818001D4B98479A
S11323C00300FB60BB68002B2BD13B68002B0CD1B6
S11323D07A68FB689A4208D8174B9847FA687B6872
S11323E011001800154B98471DE03B68002B08D0DE
S11323F0134B1B681B68002B01D1012300E0002351
S11324003B60104B18687A68FB68D31A3A68190065
S11324100D4B9847084B9847031E04D10B4B984724
S113242001E0054B9847C046BD4604B080BDC04698
S1132430311800009524000049180000E122000032
S11324402444002028440020191300003105000012
S113245080B584B000AF78600D4B1B681B68002BFF
S113246001D1012200E000227B681A607B681B68AE
S1132470002B05D1064B1B68DB681B68FB6001E081
S11324800023FB60FB681800BD4604B080BDC04655
S11324902044002080B584B000AF78600C4B98478E
S11324A00300FB600B4B1B68FA689A4205D20A4B87
S11324B098477B6801221A6002E07B6800221A6058
S11324C0044BFA681A60FB681800BD4604B080BD6E
S11324D07D19000030440020E126000080B586B05C
S11324E000AFF860B9607A603B6000237B61FB68F1
S11324F0BA685A60FB68FA681A61BA687B689A42DB
S113250012D87A683B68D21AFB689B699A4202D354
S113251001237B611BE0104B1A68FB68043319002C
S113252010000E4B984712E07A683B689A4206D234
S1132530BA683B689A4202D301237B6107E0084BE7
S11325401A68FB68043319001000044B98477B6930
S11325501800BD4606B080BD24440020630300007B
S11325602044002090B58BB002AF9AE00823FB18FA
S11325701B68002B00DA94E00823FB189B68FB61BE
S1132580FB695B69002B04D0FB69043318004C4BD6
S113259098473B1D18004B4B98470300BB61082329
S11325A0FB181B68092B00D97AE09A00464BD31814
S11325B01B689F46FB6928229B5C01221343D9B206
S11325C0FB69282299540823FB185A68FB699B6904
S11325D0D1180823FB185B68BA69F8693B4CA0471B
S11325E0031E5ED0FB691B6AFA6910009847FB69F9
S11325F028229B5C1A000423134052D00823FB18A2
S11326005A68FB699B69D218F86900230093002378
S113261000212F4CA04703007B617B69002B40D134
S113262072B6FEE7FB6928229B5C01229343D9B270
S1132630FB692822995434E0FB6928229B5C01221F
S11326401343D9B2FB69282299540823FB185A680A
S1132650FB699A61FB699B69002B01D172B6FEE7A5
S1132660FB699A69BB69D118BB69BA69F869174CE7
S1132670A04716E0FB6928229B5C1A000223134042
S113268004D1FB691800134B98470AE0FB69282220
S11326909B5C01229343D9B2FB692822995400E040
S11326A0C0460D4B1B680822B918002218000B4BBA
S11326B09847031E00D059E7C046BD4609B090BDF7
S11326C0CF03000095240000083D0000DD24000035
S11326D039220000F9070000284400209D0E000064
S11326E090B589B002AF41E02A4B1B68DB681B68D8
S11326F07B61284B1B68DB68DB683B613B69043307
S11327001800254B98473B691B6A3A6910009847A3
S11327103B6928229B5C1A000423134026D03B69A2
S11327209A697B69D318FB60FA687B699A420ED96F
S11327303B69FA685A603B693A691A61154B1A6831
S11327403B69043319001000144B98470EE07A6972
S113275038690023009300230021114CA047030093
S1132760BB60BB68002B01D172B6FEE7094B1B6846
S11327701B68002BB8D1074B1B687B60094B1A6898
S1132780044B1A60074B7A681A60C046BD4607B00E
S113279090BDC04620440020CF0300006303000026
S11327A0392200002444002080B500AF154B98471F
S11327B0154B1B68002B20D1144B1800144B984761
S11327C0144B1800124B9847134B104A1A60134BC2
S11327D0104A1A6000220C210520114B9847020070
S11327E0094B1A60084B1B68002B06D0064B1B686C
S11327F00C4A110018000C4B98470C4B9847C046E4
S1132800BD4680BD5105000028440020F843002047
S1132810CD0200000C440020204400202444002069
S1132820C10A0000003D0000C91200007505000047
S113283080B500AF034B1B6800209847C046BD46D7
S113284080BDC0463444002080B500AF034B5B68B4
S113285001209847C046BD4680BDC0463444002090
S113286080B500AF034B9B6802209847C046BD4625
S113287080BDC0463444002080B500AF034BDB6804
S113288003209847C046BD4680BDC046344400205E
S113289080B500AF034B1B6904209847C046BD4672
S11328A080BDC0463444002080B500AF034B5B6953
S11328B005209847C046BD4680BDC046344400202C
S11328C080B500AF034B9847034B9847002318008B
S11328D0BD4680BDDD280000C101000080B500AF09
S11328E0024B9847C046BD4680BDC04649380000EB
S11328F080B500AF72B6FEE780B582B000AF7860F5
S1132900396072B6FEE780B500AFC046BD4680BDF3
S113291080B500AF0720074B98470200064B0749D4
S11329201000984703001A00054B1A60C046BD46C4
S113293080BDC046452E0000F1380000102700007D
S11329404C44002080B588B000AF07201E4B984748
S11329501E4BFA22510098470300013B7B611C4B3C
S11329603B611C4BFB608023DB04BB603B691B6841
S11329707A69D31AFB61184B98470300BB61174B64
S11329809847FB681B68BA68134007D0BB690133DA
S1132990BB613B691B687A69D31AFB61BA6913008E
S11329A09B009B185B007B600D4B1A68074B110062
S11329B0F869984703001A007B689B187B607B6862
S11329C01800BD4608B080BD452E0000F138000057
S11329D018E000E004ED00E099190000A5050000EE
S11329E04C44002080B582B000AF104B1B68002B14
S11329F012D1EFF310837B607B68002B09D172B690
S1132A00BFF35F8F0A4B00221A700A4B01221A701F
S1132A1002E0084B00221A70044B1B685A1C034B3B
S1132A201A60C046BD4602B080BDC0465044002076
S1132A30040000205444002080B500AF0B4B1B68F9
S1132A405A1E0A4B1A60094B1B68002B0AD1084B0B
S1132A501B78DBB2002B05D0064B01221A70BFF3A2
S1132A605F8F62B6C046BD4680BDC046504400205C
S1132A70544400200400002080B584B000AF02005C
S1132A80FB1D1A700F23FB18FA1D1278D2091A7055
S1132A900E23FB18FA1D127852091A700D4BBB60F5
S1132AA00F23FB181B78002B0FD10F23FB181B7867
S1132AB09B0010229446BC446344083B1A680E23CE
S1132AC0FB181B78DB01D31800E000231800BD4677
S1132AD004B080BD0044004180B582B000AF020064
S1132AE0FB1D1A70FB1D1B781800034B984703004D
S1132AF01800BD4602B080BD792A000080B582B0BE
S1132B0000AF78607B6800221A707B6801225A70DB
S1132B10C046BD4602B080BD80B584B000AF02009F
S1132B20FB1D1A70BB1D0A1C1A70FB1D1B781800B4
S1132B300D4B98470300FB60FB1D1B781F221340BD
S1132B4001229A401300BB60BB1D1B78002B03D0ED
S1132B50FB68BA689A6102E0FB68BA685A61C046C9
S1132B60BD4604B080BDC046D92A000080B582B0FD
S1132B7000AF3B1D18000E4B98473B1D01221A70F5
S1132B803B1D19000E200B4B984701210E200A4BC8
S1132B9098473B1D00221A703B1D01225A703B1DB1
S1132BA019000F20034B9847C046BD4602B080BDB4
S1132BB0FD2A0000E12B0000192B000080B582B033
S1132BC000AF78607B6880221A707B6800225A709C
S1132BD07B6801229A70C046BD4602B080BD0000E9
S1132BE080B584B000AF02003960FB1D1A700C235D
S1132BF0FB1818000D4B98470C23FB1880221A7001
S1132C003B681A780C23FB185A703B685A780C23DB
S1132C10FB189A700C23FA18FB1D1B78110018007E
S1132C20034B9847C046BD4604B080BDBD2B000091
S1132C30F937000080B582B000AF78607B6801226C
S1132C405A607B6800225A707B6806221A707B687F
S1132C5000221A727B6800225A72C046BD4602B036
S1132C6080BD80B582B000AF78607B6800221A70A6
S1132C707B6800225A70C046BD4602B080BD80B554
S1132C8082B000AF78607B6803221A707B680022F0
S1132C905A707B6801229A70C046BD4602B080BD5E
S1132CA080B582B000AF78607B6800221A707B68C0
S1132CB000229A807B680022DA807B6800221A72E4
S1132CC07B6800225A727B6800225A707B6801225A
S1132CD09A707B6807229A727B683F22DA727B685B
S1132CE001221A737B6801225A737B680622DA81F7
S1132CF0C046BD4602B080BD80B582B000AF0200C0
S1132D00FB1D1A70FB1D1B78002B08D00A4A0A4BC6
S1132D101B78DBB204210B43DBB2137007E0064AD5
S1132D20054B1B78DBB204218B43DBB21370C04626
S1132D30BD4602B080BDC0460004004080B582B0EC
S1132D4000AF0200FB1D1A70034AFB1D1B781372AF
S1132D50C046BD4602B080BD0004004080B582B0CC
S1132D6000AF0200FB1D1A70BB1D0A1C1A70FB1D6C
S1132D701B78012B08D0022B0BD0002B0ED10B4A51
S1132D80BB1D1B7853720BE0084ABB1D1B78937262
S1132D9006E0064ABB1D1B78D37201E0172300E04E
S1132DA000231800BD4602B080BDC04600040040A8
S1132DB080B582B000AF0200FB1D1A70084AFB1DEB
S1132DC01B780F210B40D9B253680F2001404900F2
S1132DD01E2083430B435360C046BD4602B080BDF2
S1132DE00040004180B500AFC046044BDB681022B0
S1132DF01340FAD0C046BD4680BDC046000800401E
S1132E0080B500AF0C4A0D4B1B689BB280218B43ED
S1132E109BB293840A4B9847074A084B9B68D3623A
S1132E20054A064B5B689362034A044B1B689BB2DA
S1132E309384C046BD4680BD00080040584400202D
S1132E40E52D000080B582B000AF0200FB1D1A70B2
S1132E50FB1D1B78072B33D89A001C4BD3181B6817
S1132E609F461B4BDB682CE01A4B1B6A9B059B0F90
S1132E70DBB21A00184BD34023E080231B0220E06E
S1132E8080231B021DE0124B1B691AE0104B1B68C8
S1132E900222134001D1002313E0104B98470C4B3E
S1132EA01B680422134009D000200D4B98470200F0
S1132EB0074B9B681B041B0C534302E0094B00E0C7
S1132EC000231800BD4602B080BDC046303D00005E
S1132ED0584400200008004000127A00E52D00004C
S1132EE065360000006CDC0280B584B000AF786009
S1132EF01A4B1B6AFB607B681B781A1C0323134064
S1132F00DAB20D23FB1803210A4010001A780321BA
S1132F108A43111C021C0A431A707B689A780C239A
S1132F20FB18D0011A787F210A40111C021C0A43A5
S1132F301A707B685A780C23FB1801210A4090010F
S1132F401A7840218A43111C021C0A431A70034B4D
S1132F50FA681A62C046BD4604B080BD000800404D
S1132F6080B582B000AF78607B689B7A1B021A0040
S1132F70F8235B0113407A68D27A1A431D4B5A60D6
S1132F807B681A7A7B685B7A1343DBB21A007B682E
S1132F909B8813437A68D2881A437B685B789B01C9
S1132FA01A437B689B78DB011A43124B1A607B68D7
S1132FB01B78042B1AD17B681B7B1B061A00F82391
S1132FC05B051A407B685B7B1B041900FF231B0411
S1132FD00B4013437A68D2891A43064B9A60054B17
S1132FE01B687A6812781A43024B1A60C046BD46C1
S1132FF002B080BD5844002080B582B000AF02000A
S1133000FB1D1A70FB1D1B78072B30D89A001B4B35
S1133010D3181B689F461A4B194A126A02210A43A5
S11330201A62002326E0164B154A926902210A43CC
S11330309A611EE0124A124B1B8A9BB202210B4377
S11330409BB2138215E00E4A0D4B9B8A9BB2022160
S11330500B439BB293820CE00A4B1B6802221A4377
S1133060084B1A60084B984703E0002302E017233B
S113307000E000231800BD4602B080BD503D0000B2
S11330800008004058440020012E000080B59EB086
S113309000AF584B584A9A600220584B984768230F
S11330A0FB181800564B98476823FB1804221A7023
S11330B06823FB1800229A706823FB1800225A70B8
S11330C06823FB1800229A806823FB1800225A7296
S11330D06823FB1800221A726823FB180022DA8086
S11330E06823FB180622DA816823FB1807221A7367
S11330F06823FB183F225A736823FB181800414BBE
S113310098470720404B98476423FB1818003F4B0F
S113311098476423FB1800221A706423FB180122C9
S11331209A706423FB1800225A706423FB18180059
S1133130374B98470620344B9847364B98474C23D7
S1133140FB181800344B98474C23FB1806221A70BE
S11331504C23FB1801225A604C23FB1800221A72DC
S11331604C23FB1800225A724C23FB18190001202F
S11331702A4B984701202A4B98470C23FB18180028
S1133180284B98470C23FB1801221A700C23FB18B8
S113319019000020244B98470020244B98473B00FB
S11331A018001D4B98473B0007221A703B00012270
S11331B05A603B0000221A723B0000225A723B0004
S11331C019000020154B98470020154B9847002004
S11331D0174B98470120174B984700210020164BA6
S11331E0984700210120144B9847C046BD461EB0A5
S11331F080BDC0460008004010360000B12D00001C
S1133200A12C0000612F0000F92F00007F2C00008A
S1133210E92E0000E1320000352C000011330000DB
S113322035340000632C000069350000C13500000E
S11332303D2D0000F92C00005D2D000080B500AF8D
S1133240054B5B78DBB25BB2002B01DA012300E0B3
S113325000231800BD4680BD000C004080B582B03C
S113326000AF02003960FB1D1A70FB1D1B78012B97
S11332700AD0022B0FD0002B14D10E4B0D4A9169AA
S11332803A680A439A610FE00A4B0A4AD1693A68DC
S11332900A43DA6108E0074B064A116A3A680A43AE
S11332A01A6201E0172300E000231800BD4602B0B3
S11332B080BDC0460004004080B500AF024B984773
S11332C0C046BD4680BDC046E529000080B500AFBC
S11332D0024B9847C046BD4680BDC046392A00000F
S11332E080B500AF08210020074B9847074B012207
S11332F01A70C046054B1B78DBB21A000123134039
S1133300F8D1C046BD4680BD5D320000000C0040CF
S113331080B586B000AF02003960FB1D1A70FB1D3A
S11333201B787B61FB1D1B783B613B681B781B0290
S11333301A007B6913437B613B685B78002B04D0E4
S11333407B698022D20213437B613B685B7A002B4A
S113335004D07B698022120313437B613B685B6862
S1133360012B2CD93B685A683B685B68013B1340CE
S11333701AD10023FB600223BB6005E0FB68013324
S1133380FB60BB685B00BB603B685A68BB689A42E1
S1133390F4D8FB681B023A6913433B617B698022C2
S11333A0520313437B610AE03B685B681B023A6982
S11333B013433B617B698022920213437B613B6828
S11333C01B7A002B04D07B698022920313437B6118
S11333D0C046134B9847031EFBD1124B9847124A21
S11333E0FB1D1B781370C0460D4B9847031EFBD181
S11333F00E4B3A699A60C046094B9847031EFBD1AD
S11334000A4B0A4A51688022520211407A690A43DF
S11334105A60074B9847C046BD4606B080BDC046BB
S11334203D320000B9320000080C0040000C00409E
S1133430CD32000080B582B000AF0200FB1D1A70CF
S1133440C0460E4B9847031EFBD10D4B98470D4ABF
S1133450FB1D1B781370C046084B9847031EFBD115
S1133460094B094A5268802149020A435A60074BB2
S11334709847C046BD4602B080BDC0463D320000FC
S1133480B9320000040C0040000C0040CD320000B2
S113349080B586B000AF0200FB1D1A70C0462A4BEF
S11334A09847031EFBD1294B9847294AFB1D1B78DB
S11334B01370C046244B9847031EFBD1254B5B6811
S11334C0DB04DB0EDBB21800234B984703007B615F
S11334D01F4AFB1D1B7813701E4B5B68DB02DB0F5E
S11334E0DAB21323FB181A701C4AFB1D1B781370E5
S11334F0C046154B9847031EFBD1164B9B681B0215
S11335001B0C9BB2FB60164B98471323FB181B78CC
S1133510002B09D1FB68012B06D9124BF968786995
S1133520984703007B610AE01323FB181B78002BE8
S113353005D0FB6801337A69DA4013007B617B694B
S11335401800BD4606B080BD3D320000B93200000F
S1133550040C0040000C0040452E0000080C004004
S1133560CD320000F138000080B584B000AF020015
S11335703960FB1D1A70FB1D1B78FB603B681B78D0
S11335801B021A00FB681343FB603B685B78002B4B
S113359004D0FB68802212021343FB60FB1D1B78DE
S11335A01800054B9847054BFA6892B25A80C046FA
S11335B0BD4604B080BDC04609360000000C004082
S11335C080B582B000AF0200FB1D1A700A4B984709
S11335D00A4AFB1D1B7813700949094B5B889BB28F
S11335E08022D20113439BB24B80064B9847C046BE
S11335F0BD4602B080BDC046B9320000020C004096
S1133600000C0040CD32000080B582B000AF020053
S1133610FB1D1A700E4B98470E4AFB1D1B78137046
S11336200D4A0D4B5B889BB20C490B409BB25380F7
S1133630C046094B5B889BB21A008023DB01134010
S1133640F7D1074B9847C046BD4602B080BDC0467F
S1133650B9320000020C0040000C0040FFBFFFFF25
S1133660CD32000080B584B000AF0200FB1D1A709B
S11336700D4B98470D4AFB1D1B7813700C4B5B8850
S11336801B051B0FDAB20F23FB181A70094B98475E
S11336900F23FB181B781800074B984703001800EA
S11336A0BD4604B080BDC046B9320000020C0040E3
S11336B0000C0040CD3200009134000080B584B08D
S11336C000AF0200FB1D1A700F23FB18FA1D1278BD
S11336D0D2091A700E23FB18FA1D127852091A70B7
S11336E00D4BBB600F23FB181B78002B0FD10F234E
S11336F0FB181B789B0010229446BC446344083B8F
S11337001A680E23FB181B78DB01D31800E0002392
S11337101800BD4604B080BD0044004180B588B0A7
S113372000AFF860B9607A600023FB617B681B78A6
S1133730802B0BD0FB69802252021343FB617B6810
S11337401B781B061A00FB691343FB617B685B78DB
S1133750002B03D07B685B78022B10D1FB6980229D
S113376092021343FB617B689B78002B04D0FB69B6
S11337708022D2021343FB61FB68BA685A607B68FB
S11337805B78012B03D07B685B78022B06D1FB6945
S1133790184A1340FB61FB68BA689A60BB681B0453
S11337A01B0CBB61BB681B0C7B61BA69FB691343CF
S11337B0A022D2051A43FB689A627A69FB69134313
S11337C0D02212061A43FB689A62FA698023DB024C
S11337D013400AD07B689B78012B03D1FB68BA683D
S11337E09A6102E0FB68BA685A61C046BD4608B0F7
S11337F080BDC046FFFFFBFF80B584B000AF020070
S11338003960FB1D1A70FB1D1B7818000A4B984782
S11338100300FB60FB1D1B781F22134001229A400A
S11338201300BB603A68B968FB681800034B9847FB
S1133830C046BD4604B080BDBD3600001D37000043
S113384080B500AFFEE7000080B500AF034B98479A
S1133850034B9847C046BD4680BDC0468D3000002E
S11338606D2B000080B582B000AF164B7B60164B09
S11338703B607A683B689A420CD007E03B681A1DAB
S11338803A607A68111D796012681A603A680F4BC1
S11338909A42F3D30E4B3B6004E03B681A1D3A6036
S11338A000221A603A680B4B9A42F6D30A4B7B60AB
S11338B00A4B7A687F218A439A60094B9847094BDF
S11338C09847FEE7983D00000000002034040020E3
S11338D034040020D04400200000000000ED00E08B
S11338E0093A0000C128000080B500AFFEE70000DF
S11338F0002243088B4274D303098B425FD3030A2B
S11339008B4244D3030B8B4228D3030C8B420DD33D
S1133910FF22090212BA030C8B4202D312120902CB
S113392065D0030B8B4219D300E0090AC30B8B4209
S113393001D3CB03C01A5241830B8B4201D38B03B7
S1133940C01A5241430B8B4201D34B03C01A52415C
S1133950030B8B4201D30B03C01A5241C30A8B429F
S113396001D3CB02C01A5241830A8B4201D38B028A
S1133970C01A5241430A8B4201D34B02C01A52412E
S1133980030A8B4201D30B02C01A5241CDD2C309A0
S11339908B4201D3CB01C01A524183098B4201D31C
S11339A08B01C01A524143098B4201D34B01C01A07
S11339B0524103098B4201D30B01C01A5241C3087F
S11339C08B4201D3CB00C01A524183088B4201D3EE
S11339D08B00C01A524143088B4201D34B00C01ADA
S11339E05241411A00D20146524110467047FFE746
S11339F001B5002000F006F802BDC0460029F7D04A
S1133A0076E770477047C04670B50D4E0D4D0024E3
S1133A10AD1BAD1005D0A300F35801349847A5425F
S1133A20F9D100F0A7F9084E084D0024AD1BAD10E4
S1133A3005D0A300F35801349847A542F9D170BDCD
S1133A40803D0000803D0000803D0000883D000076
S1133A50F0B505000F2A2FD90B0003439B0734D17F
S1133A6016000C000300103E350901352D014519DF
S1133A7027681F6067685F60A7689F60E768103405
S1133A80DF6010339D42F3D10F239E431036851916
S1133A9089191340032B1AD91E1F0023B4080134BB
S1133AA0A400CF58EF500433A342FAD10324A64311
S1133AB0331D2240C918ED18002A05D00023CC5C20
S1133AC0EC5401339342FAD1F0BD0500F6E71A0035
S1133AD0F2E7C046F0B5830743D0541E002A3FD016
S1133AE0CEB20200032502E01A00013C38D3531C75
S1133AF016702B42F8D1032C2AD9FF220A40150252
S1133B0015432A0415430F2C14D927001A00103F1B
S1133B103E09013636019E19156055609560D560E1
S1133B2010329642F8D10F2297431037DB19144014
S1133B30032C0DD91A00271FBE080136B6009E19A2
S1133B4020C2B242FCD1032297430437DB1914404C
S1133B50002C05D0C9B21C19197001339C42FBD149
S1133B60F0BD14000300C6E7034B10B5002B02D0D0
S1133B70024800F005F810BD00000000913B000071
S1133B8010B5010000230022002000F01FF810BD32
S1133B9070B5094B094CE41AA41009D0084AA518B9
S1133BA0AD00ED182B68013C9847043D002CF9D179
S1133BB000F0EAF870BDC046943D0000983D000056
S1133BC0FFFFFF3F7047C0467047C046F0B54E4602
S1133BD04546DE465746E0B5364D83B006002868B4
S1133BE098460F009146FFF7EDFF334B1C68A42362
S1133BF05B00E058002852D043681F2B13DC5A1C8A
S1133C000192002E28D1019A02339B0042601F507A
S1133C102868FFF7D9FF002003B03CBC90469946C2
S1133C20A246AB46F0BD254B002B3DD0C82040003A
S1133C3000E000BF002837D0A42200235200A1587E
S1133C4043600160A05040328350043283500133FA
S1133C5001930023002ED6D09A00924682444A460D
S1133C60882154466250C4225200914681444A46F7
S1133C708739994012688B460A4394464A466146FE
S1133C801160842241465200A150022EBBD1020091
S1133C905C468D32FF3211680C431460B3E7200098
S1133CA04D30FF30E050A7E72868FFF78DFF012073
S1133CB04042B1E730040020703D000000000000E5
S1133CC0527800005458000049444C45000000005C
S1133CD00925630925750925750925750D0A00004F
S1133CE00925750909257525250D0A000925750974
S1133CF0093C3125250D0A00546D7220537663006A
S1133D00546D725100000000B4250000B425000079
S1133D10B425000024260000382600007426000084
S1133D20B4250000B4250000242600003826000035
S1133D30622E0000C02E0000C02E0000802E000065
S1133D407A2E0000862E0000682E00008C2E0000C3
S1133D50343000006E3000006E3000006A30000025
S1133D6026300000463000001630000058300000B5
S1133D7008000020F8B5C046F8BC08BC9E46704751
S1133D80693B0000C9000000F8B5C046F8BC08BC97
S10B3D909E467047A1000000EB
S1133D98AAAAAAAA0100000000000000F402002058
S1133DA85C030020C40300200000000000000000A1
S1133DB800000000000000000000000000000000F7
S1133DC800000000000000000000000000000000E7
S1133DD800000000000000000000000000000000D7
S1133DE800000000000000000000000000000000C7
S1133DF800000000000000000000000000000000B7
S1133E0800000000000000000000000000000000A6
S1133E180000000000000000000000000000000096
S1133E280000000000000000000000000000000086
S1133E380000000000000000000000000000000076
S1133E4801000000000000000E33CDAB34126DE613
S1133E58ECDE05000B00000000000000000000007C
S1133E680000000000000000000000000000000046
S1133E780000000000000000000000000000000036
S1133E880000000000000000000000000000000026
S1133E980000000000000000000000000000000016
S10741C8AC440020DF
S90338655F
